:100000000C948A010C94BB010C94BB010C94BB01B1
:100010000C94BB010C94BB010C94BB010C94BB0170
:100020000C94BB010C94BB010C94BB010C94BB0160
:100030000C94BB010C94BB010C94BB010C94BB0150
:100040000C94BB010C94BB010C94BB010C94BB0140
:100050000C94BB010C94BB010C94BB010C941005D7
:100060000C94BB010C94DA040C94B0040C94BB0106
:100070000C94BB010C94BB010C94BB010C94BB0110
:100080000C94BB010C94BB010C94BB010C94BB0100
:100090000C94BB010C94BB010C94BB010C94BB01F0
:1000A0000C94BB010C94BB010C94BB010C94BB01E0
:1000B0000C94BB010C94BB010C94BB010C94BB01D0
:1000C0000C94BB010C94BB010C94BB010C94BB01C0
:1000D0000C94BB010C94BB010C94BB010C94BB01B0
:1000E0000C94BB0107634236B79BD8A71A396856F0
:1000F00018AEBAAB558C1D3CB7CC5763BD6DEDFD4A
:10010000753EF6177231BF000000803F0800000006
:10011000BE922449123EABAAAA2ABECDCCCC4C3EFC
:1001200000000080BEABAAAAAA3E00000000BF00EB
:100130000000803F0000000000084178D3BB4387E7
:10014000D1133D190E3CC3BD4282AD2B3E68EC82FB
:1001500076BED98FE1A93E4C80EFFFBE01C4FF7F80
:100160003F00000000000C940D020C9421030C943D
:10017000F9010C943F040C943C030C947D040C9402
:1001800034030C9438030C9454030C941B020C9409
:10019000A1040C94A0020C94A9040C94EA010C9400
:1001A00053020C948B040C946B040C944F030C942A
:1001B00046030C944A030C9450030C9483050C944E
:1001C00059040C942A030C940F030C9424030C94EC
:1001D0001D030C94A3040C9415030C9442030C947B
:1001E00009040C9419030C94BD010C9429040C947B
:1001F0002E0300002100240027002A002D003000DB
:10020000330001010000040107010A01000022007F
:10021000250028002B002E003100340002010000D0
:10022000050108010B010000200023002600290021
:100230002C002F003200000100000301060109011B
:1002400005050505070508080808020202020A0A52
:100250000808040404040101010101010101030370
:10026000030303030303040707070C0C0C0C0C0C1B
:100270000C0C0202020206060606060606060B0B18
:100280000B0B0B0B0B0B0102102020080810204059
:10029000102040800201020108040201010204084A
:1002A00010204080804020100804020180040201D8
:1002B0008040201008040201080402010102040821
:1002C00010204080010204081020408000000A0B2A
:1002D00002090C0D0E0807030401000000000000D5
:1002E000000000000000000000000000000000000E
:1002F00000000000000000001211100000000000CB
:1003000000000000000000000000000000000000ED
:100310000000830511241FBECFEFD1E2DEBFCDBFA9
:1003200000E00CBF12E0A0E0B2E0ECE0FAE100E097
:100330000BBF02C007900D92A631B107D9F723E099
:10034000A6E1B2E001C01D92A434B207E1F711E0CA
:10035000CAE8D1E000E006C021970109802FFE0124
:100360000E94E80CC938D10780E00807A9F70E946D
:10037000D9050C94040D0C940000AF92BF92CF925B
:10038000DF92EF92FF920F931F93CF93DF936C0155
:100390007B018B01040F151FEB015E01AE18BF0836
:1003A000C017D10759F06991D601ED91FC910190E8
:1003B000F081E02DC6011995892B79F7C501DF91F0
:1003C000CF911F910F91FF90EF90DF90CF90BF9052
:1003D000AF900895FC01538D448D252F30E0842F7C
:1003E00090E0821B930B541710F0CF96089501975D
:1003F0000895FC01918D828D981761F0A28DAE0F4A
:10040000BF2FB11D5D968C91928D9F5F9F73928FD0
:1004100090E008958FEF9FEF0895FC01918D828DFC
:10042000981731F0828DE80FF11D858D90E00895C9
:100430008FEF9FEF0895FC01918D228D892F90E021
:10044000805C9F4F821B91098F739927089584EADE
:1004500092E00E941B0221E0892B09F420E0822F08
:100460000895FC01A48DA80FB92FB11DA35ABF4F49
:100470002C91848D90E001968F739927848FA689A3
:10048000B7892C93A089B1898C91837080648C93F7
:10049000938D848D981306C00288F389E02D8081A6
:1004A0008F7D80830895EF92FF920F931F93CF93D8
:1004B000DF93EC0181E0888F9B8D8C8D98131AC09F
:1004C000E889F989808185FF15C09FB7F894EE8986
:1004D000FF896083E889F9898081837080648083E3
:1004E0009FBF81E090E0DF91CF911F910F91FF902E
:1004F000EF900895F62E0B8D10E00F5F1F4F0F73D6
:100500001127E02E8C8D8E110CC00FB607FCFACF90
:10051000E889F989808185FFF5CFCE010E943102FB
:10052000F1CFEB8DEC0FFD2FF11DE35AFF4FF08261
:100530009FB7F8940B8FEA89FB8980818062CFCFC7
:10054000CF93DF93EC01888D8823B9F0AA89BB890A
:10055000E889F9898C9185FD03C0808186FD0DC0F5
:100560000FB607FCF7CF8C9185FFF2CF808185FF16
:10057000EDCFCE010E943102E9CFDF91CF910895F6
:1005800080E090E0892B29F00E94270281110E94CF
:10059000000080E090E0892B49F080E090E0892B1A
:1005A00029F00E94000081110E94000080E090E08C
:1005B000892B49F080E090E0892B29F00E9400000F
:1005C00081110E94000080E090E0892B49F080E0DA
:1005D00090E0892B29F00E94000081110C9400000A
:1005E00008958150823108F05AC0E82FF0E0882742
:1005F000E350FD4F8F4F0C94E80C1D0321030F03B4
:10060000150319034F0324032A032E03340338036D
:100610003C03420346034F034A03500354038091B3
:1006200080008F77809380000895809180008F7D77
:10063000F9CF80918000877FF5CF84B58F7784BD17
:10064000089584B58F7DFBCF8091B0008F77809324
:10065000B00008958091B0008F7DF9CF8091900017
:100660008F77809390000895809190008F7DF9CFCF
:1006700080919000877FF5CF8091A0008F77809345
:10068000A00008958091A0008F7DF9CF8091A000F7
:10069000877FF5CF809120018F7780932001089587
:1006A000809120018F7DF9CF80912001877FF5CF48
:1006B0001F93CF93DF93282F30E0F901E453FD4FD0
:1006C0008491F901EA57FD4FD491F901E05CFD4FA7
:1006D000C491CC23A9F0162F81110E94F102EC2FB6
:1006E000F0E0EE0FFF1FE45FFD4FA591B4918FB7CF
:1006F000F894EC91111108C0D095DE23DC938FBFE4
:10070000DF91CF911F910895DE2BF8CFCF93DF9328
:1007100090E0FC01EA57FD4F2491805C9D4FFC0165
:1007200084918823D1F090E0880F991FFC01EE504E
:10073000FE4FA591B491FC01E45FFD4FC591D491AA
:1007400061110EC09FB7F8948C91E22FE0958E2333
:100750008C932881E223E8839FBFDF91CF91089596
:100760008FB7F894EC91E22BEC938FBFF6CF3FB7A5
:10077000F89480911B0290911C02A0911D02B091EF
:100780001E0226B5A89B05C02F3F19F00196A11D9A
:10079000B11D3FBFBA2FA92F982F8827BC01CD01CB
:1007A000620F711D811D911D42E0660F771F881F2A
:1007B000991F4A95D1F70895CF92DF92EF92FF9259
:1007C0000E94B7036B017C010E94B7036C197D097D
:1007D0008E099F09683E734081059105A8F3FF903B
:1007E000EF90DF90CF9008958A30910508F0B7C060
:1007F000FC018827E150FC4F8F4F0C94E80C090452
:1008000029043F0459046B047D048B04A104A30450
:10081000A90461E085E30E94580361E081E30E943E
:10082000580361E082E30E94580361E08EE20E9477
:10083000580361E08CE20E94580361E083E30E9468
:10084000580360E084E30E94580360E080E30C9466
:10085000580360E085E30E94580361E081E30E9451
:10086000580361E082E30E94580360E08EE20E9438
:10087000580360E08CE20E94580360E0DFCF61E043
:1008800085E30E94580361E081E30E94580360E021
:1008900082E30E94580361E08EE20E94580361E007
:1008A0008CE20E94580360E083E30E94580361E0F9
:1008B000C9CF61E085E30E94580361E081E30E94B3
:1008C000580361E082E30E94580361E08EE20E94D7
:1008D000580360E0E5CF60E085E30E94580361E0E3
:1008E00081E30E94580361E082E30E94580360E0C4
:1008F0008EE20E94580360E01FC061E085E30E9421
:10090000580360E081E30E94580361E082E30E94A3
:10091000580361E0EDCF61E085E30E94580360E099
:1009200081E30E94580361E082E30E94580361E082
:100930008EE20E94580361E08CE20E94580361E05D
:10094000B3CF61E087CF61E085E30E94580361E0A7
:10095000E7CF61E085E30E94580361E0D3CF0895BB
:100960001F920F920FB60F9211240BB60F922F9376
:100970003F934F935F936F937F938F939F93AF9327
:10098000BF93EF93FF9384EA92E00E943102FF91BC
:10099000EF91BF91AF919F918F917F916F915F91F7
:1009A0004F913F912F910F900BBE0F900FBE0F9064
:1009B0001F9018951F920F920FB60F9211240BB62D
:1009C0000F922F938F939F93EF93FF93E091B40235
:1009D000F091B5028081E091BA02F091BB0282FDF4
:1009E0001DC090818091BD028F5F8F732091BE02E8
:1009F000821741F0E091BD02F0E0EC55FD4F958F7C
:100A00008093BD02FF91EF919F918F912F910F9055
:100A10000BBE0F900FBE0F901F9018958081F2CFE4
:100A20001F920F920FB60F9211242F933F938F9323
:100A30009F93AF93BF938091170290911802A0915A
:100A40001902B0911A023091160223E0230F2D37BC
:100A500058F50196A11DB11D20931602809317022F
:100A600090931802A0931902B0931A0280911B026E
:100A700090911C02A0911D02B0911E020196A11D31
:100A8000B11D80931B0290931C02A0931D02B09392
:100A90001E02BF91AF919F918F913F912F910F9027
:100AA0000FBE0F901F90189526E8230F0296A11DE8
:100AB000B11DD2CFCF93DF93282F30E0F901E4535B
:100AC000FD4F8491F901EA57FD4FD491F901E05CA3
:100AD000FD4FC491CC23A1F081110E94F102EC2FB3
:100AE000F0E0EE0FFF1FEA5DFD4FA591B491EC9190
:100AF000ED2381E090E009F480E0DF91CF9108954B
:100B000080E090E0FACF1092A7021092A60288EE41
:100B100093E0A0E0B0E08093A8029093A902A09394
:100B2000AA02B093AB0284E092E09093A502809376
:100B3000A40285EC90E09093B1028093B00284EC23
:100B400090E09093B3028093B20280EC90E0909397
:100B5000B5028093B40281EC90E09093B702809349
:100B6000B60282EC90E09093B9028093B80286ECD2
:100B700090E09093BB028093BA021092BD02109253
:100B8000BE021092BF021092C00284E00E945A0579
:100B90008093430383E00E945A058093420382E0DE
:100BA0000E945A0521E0892B09F020E0209341039F
:100BB0000895CF93DF93CDB7DEB7A9970FB6F8941A
:100BC000DEBF0FBECDBF789484B5826084BD84B58E
:100BD000816084BD85B5826085BD85B5816085BD38
:100BE00080916E00816080936E00109281008091F0
:100BF0008100826080938100809181008160809378
:100C00008100809180008160809380008091B1009C
:100C100084608093B1008091B00081608093B000C7
:100C20008091910082608093910080919100816019
:100C300080939100809190008160809390008091DA
:100C4000A10082608093A1008091A10081608093C7
:100C5000A1008091A00081608093A000809121017B
:100C60008260809321018091210181608093210124
:100C70008091200181608093200180917A008460BE
:100C800080937A0080917A00826080937A008091CC
:100C90007A00816080937A0080917A0080688093E6
:100CA0007A001092C100E091B402F091B50282E0A6
:100CB0008083E091B002F091B1021082E091B20223
:100CC000F091B3028FEC80831092BC02E091B802E5
:100CD000F091B90286E08083E091B602F091B7020C
:100CE000808180618083E091B602F091B7028081BB
:100CF00088608083E091B602F091B70280818068BD
:100D00008083E091B602F091B70280818F7D80836D
:100D100061E085E00E94860361E086E00E94860330
:100D200060E082E00E94860360E083E00E94860328
:100D300060E084E00E94860361E085E30E94860310
:100D400061E081E30E94860361E082E30E94860302
:100D500061E08EE20E94860361E08CE20E948603DD
:100D600061E083E30E94860361E084E30E948603DE
:100D700061E080E30E94860361E08BE20E948603CB
:100D800061E08FE20E94860361E08DE20E948603AB
:100D90003CE3232E312C04E61AE08091410381309C
:100DA00031F490919F02911102C080939F02209193
:100DB0009F0230E050E040E019A27E0181E2E80E9F
:100DC000F11CCA01B9012AE030E040E050E00E9485
:100DD000C60C605DF70162937F0121153105410565
:100DE000510579F7309761F001900020E9F73197CC
:100DF000AF014E195F09B70184EA92E00E94BD017C
:100E000042E050E062E172E084EA92E00E94BD01BB
:100E100080914303880F90914203892B9091220285
:100E2000891771F08093220220912102833009F406
:100E30009DC1F4E02F9F90011124822B8093210209
:100E400080919B0290919C02880F991FFC01ED5D9F
:100E5000FD4F20919D0230919E0240815181241BC3
:100E6000350B30939E0220939D0220917B00277FBB
:100E700020937B00F7E4F0937C0020917A002064BB
:100E800020937A0020917A0026FDFCCF20917800F3
:100E9000309179008D5D9D4FFC013183208320913D
:100EA0009B0230919C02F901EE0FFF1FED5DFD4F9B
:100EB0008081918140919D0250919E02840F951FE7
:100EC00090939E0280939D022F5F3F4F2C333105FC
:100ED0000CF071C130939C0220939B02B1010E94DF
:100EE000B20C072E000C880B990B0E9499092AE07E
:100EF00038E240EA5BE30E942A0A6B017C0120E0B1
:100F000030E040EC50E40E94970A4B015C0120E085
:100F100030E040EA50E4C701B6010E94970A2B0175
:100F20003C0120E030E040E850E4C701B6010E94F7
:100F3000970A6AA37BA38CA39DA320E030E040E442
:100F400050E4C701B6010E94970A6EA37FA388A749
:100F500099A729EB3DE846E45EE3C501B4010E9490
:100F60002A0A4B015C012EE835E741E650E4C30153
:100F7000B2010E942A0A9B01AC01C501B4010E9482
:100F8000F4084B015C012BE13FE247EC51E46AA11C
:100F90007BA18CA19DA10E942A0A9B01AC01C501E5
:100FA000B4010E94F5084B015C0126EB33EB40EBEA
:100FB00052E46EA17FA188A599A50E942A0A9B01EF
:100FC000AC01C501B4010E94F4084B015C01A7010A
:100FD0009601C701B6010E942A0A2FE832E448E2CE
:100FE00053E40E942A0A9B01AC01C501B4010E948E
:100FF000F5084B015C0123E333E749E353E4C70100
:10100000B6010E942A0A9B01AC01C501B4010E94ED
:10101000F40828E431E644E053E40E94F50820E0B7
:1010200030E040E251E40E942A0A6B017C01C09248
:10103000A002D092A102E092A202F092A3020E942A
:1010400061092B01CB0164E670E00E94B20C5B01E8
:10105000B201550C880B990B0E9499092B013C0198
:101060000A9DB0010B9D700D1124072E000C880BFA
:10107000990B0E9499099B01AC01C301B2010E9426
:10108000F4082B013C010E946109CB016AE070E089
:101090000E94B20C4B0160E08BE20E94580361E0B9
:1010A0008FE20E94580361E08DE20E945803189D70
:1010B000B001199D700D1124072E000C880B990B9F
:1010C0000E9499099B01AC01C301B2010E94F4087E
:1010D0000E946109CB010E94F40360E080E30E945A
:1010E00058030E94DC0361E08BE20E94580360E039
:1010F0008FE20E94580361E08DE20E945803C40110
:101100000E94F40361E080E30E9458030E94DC0324
:1011100061E08BE20E94580361E08FE20E94580375
:1011200060E08DE20E945803C5010E94F40360E074
:1011300080E30E9458030E94DC0320E030E040E995
:1011400050E4C701B6010E94250A87FD39C080918D
:101150009F028130A9F560E085E00E94580360E0BD
:1011600086E00E9458030E94C00217CE213291F4FB
:1011700080911F029091200201968E3191053CF4DE
:101180009093200280931F021092210259CE8EE18B
:1011900090E0F6CF2231C1F780911F02909120029A
:1011A00001978230910564F7E1E0F0E0F0932002CE
:1011B000E0931F02E9CF10929C0210929B028ECE08
:1011C00020E030E040E650E4C701B6010E94250A65
:1011D00087FDC9CF80919F028111C5CF61E085E075
:1011E0000E94580361E0BCCF5058BB27AA270E9439
:1011F0000C090C94EB090E94DD0938F00E94E40907
:1012000020F039F49F3F19F426F40C94DA090EF417
:10121000E095E7FB0C94D409E92F0E94FC0958F3F0
:10122000BA17620773078407950720F079F4A6F5CB
:101230000C941E0A0EF4E0950B2EBA2FA02D0B0174
:10124000B90190010C01CA01A0011124FF27591B0B
:1012500099F0593F50F4503E68F11A16F040A22F11
:10126000232F342F4427585FF3CF46953795279582
:10127000A795F0405395C9F77EF41F16BA0B620B81
:10128000730B840BBAF09150A1F0FF0FBB1F661FC8
:10129000771F881FC2F70EC0BA0F621F731F841F0B
:1012A00048F4879577956795B795F7959E3F08F031
:1012B000B0CF9395880F08F09927EE0F97958795F3
:1012C00008950E9468096894B1110C941F0A08954A
:1012D0000E94040A88F09F5798F0B92F9927B751B8
:1012E000B0F0E1F0660F771F881F991F1AF0BA95CA
:1012F000C9F714C0B13091F00E941E0AB1E0089500
:101300000C941E0A672F782F8827B85F39F0B93FF1
:10131000CCF3869577956795B395D9F73EF490957C
:101320008095709561957F4F8F4F9F4F0895E894FA
:1013300009C097FB3EF490958095709561957F4F1D
:101340008F4F9F4F9923A9F0F92F96E9BB279395CB
:10135000F695879577956795B795F111F8CFFAF4DB
:10136000BB0F11F460FF1BC06F5F7F4F8F4F9F4F0C
:1013700016C0882311F096E911C0772321F09EE86A
:10138000872F762F05C0662371F096E8862F70E0D0
:1013900060E02AF09A95660F771F881FDAF7880FAA
:1013A0009695879597F9089597F99F6780E870E07B
:1013B00060E008959FEF80EC089500240A941616CB
:1013C000170618060906089500240A941216130633
:1013D000140605060895092E0394000C11F48823C1
:1013E00052F0BB0F40F4BF2B11F460FF04C06F5FDD
:1013F0007F4F8F4F9F4F089557FD9058440F551FB3
:1014000059F05F3F71F04795880F97FB991F61F086
:101410009F3F79F087950895121613061406551FFD
:10142000F2CF4695F1DF08C0161617061806991F69
:10143000F1CF86957105610508940895E894BB275E
:1014400066277727CB0197F908950E94210B08F4AE
:101450008FEF08950E943D0A0C94EB090E94DD096C
:1014600038F00E94E40920F0952311F00C94D4097F
:101470000C94DA0911240C941F0A0E94FC0970F3E1
:10148000959FC1F3950F50E0551F629FF001729F29
:10149000BB27F00DB11D639FAA27F00DB11DAA1F38
:1014A000649F6627B00DA11D661F829F2227B00D85
:1014B000A11D621F739FB00DA11D621F839FA00D10
:1014C000611D221F749F3327A00D611D231F849F60
:1014D000600D211D822F762F6A2F11249F575040B7
:1014E0009AF0F1F088234AF0EE0FFF1FBB1F661F32
:1014F000771F881F91505040A9F79E3F510580F0FB
:101500000C94D4090C941F0A5F3FE4F3983ED4F383
:10151000869577956795B795F795E7959F5FC1F79E
:10152000FE2B880F911D9695879597F90895FA01DE
:10153000EE0FFF1F309621053105A1F161157105F0
:1015400061F48038BFE39B0749F1689490388105C6
:1015500061F08038BFEF9B0741F099234AF5FF3FC8
:10156000E1053105210519F1E8940894E795D901C1
:10157000AA2329F4AB2FBE2FF85FD0F310C0FF5F72
:1015800070F4A695E0F7F73950F019F0FF3A38F407
:101590009F779F930DD00F9007FC9058089546F0C9
:1015A0000C94DA0960E070E080E89FE308954FE76B
:1015B0009F775F934F933F932F930E94B60B2F918A
:1015C0003F914F915F910E942A0A0C94EF0A29F4EF
:1015D00016F00C94D4090C941E0A0C94DA090E949B
:1015E000040AA8F39638A0F707F80F92E8942BE3C3
:1015F0003AEA48EB5FE70E94400A0F920F920F927F
:101600004DB75EB70F920E94FE0BE4EEF0E00E9431
:10161000450B4F915F91EF91FF91E595EE1FFF1FF5
:1016200049F0FE57E0684427EE0F441FFA95E1F7B2
:101630004195550B0E94780B0F9007FE0C946C0B94
:101640000895990F0008550FAA0BE0E8FEEF161653
:101650001706E807F907C0F012161306E407F507A6
:1016600098F0621B730B840B950B39F40A2661F01A
:10167000232B242B252B21F408950A2609F4A140BD
:10168000A6958FEF811D811D0895DF93CF931F9342
:101690000F93FF92EF92DF927B018C01689406C05A
:1016A000DA2EEF010E943D0AFE01E894A5912591F2
:1016B000359145915591A6F3EF010E940C09FE0169
:1016C0009701A801DA9469F7DF90EF90FF900F91EE
:1016D0001F91CF91DF9108959B01AC0160E070E014
:1016E00080E89FE30C94320C0C94D4090C94A40C65
:1016F0000E94040AD8F39923C9F3940F511DA3F350
:101700009150504094F059F0882332F0660F771FC3
:10171000881F91505040C1F79E3F51052CF7880F0C
:10172000911D9695879597F908955F3FACF0983E87
:101730009CF0BB27869577956795B79508F4B160BF
:101740009395C1F7BB0F58F711F460FFE8CF6F5FB7
:101750007F4F8F4F9F4FE3CF0C941F0A16F00C94CE
:10176000A40C0C94DA0968940C94D4090E94040A1D
:10177000A8F39923C1F3AEF3DF93CF931F930F9395
:10178000FF92C92FDD2788232AF02197660F771F44
:10179000881FDAF720E030E040E85FEB9FE388390C
:1017A00020F0803E38F021968F770E94F508ECE01B
:1017B000F1E004C00E94F508E9E3F1E00E94450B66
:1017C0008B01BE01EC01FB2E6F5771097595771FD8
:1017D000880B990B0E94990928E132E741E35FE306
:1017E0000E943D0AAF2D9801AE01FF900F911F910D
:1017F000CF91DF910E940C090C94EB09FA01DC01F6
:10180000AA0FBB1F9B01AC01BF5728F42227332727
:101810004427507820C0B75190F4AB2F0024469550
:1018200037952795011CA395D2F3002071F0220F64
:10183000331F441FB395DAF30ED00C94F4086130D3
:101840007105A0E88A07B94630F49B01AC01662710
:10185000772788279078309621F020833183428340
:10186000538308950E94460C0C94EB090E94E409EE
:1018700058F00E94DD0940F029F45F3F29F00C94F4
:10188000D40951110C941F0A0C94DA090E94FC0926
:1018900068F39923B1F3552391F3951B550BBB279F
:1018A000AA2762177307840738F09F5F5F4F220FE4
:1018B000331F441FAA1FA9F335D00E2E3AF0E0E8DB
:1018C00032D091505040E695001CCAF72BD0FE2F25
:1018D00029D0660F771F881FBB1F261737074807B9
:1018E000AB07B0E809F0BB0B802DBF01FF27935871
:1018F0005F4F3AF09E3F510578F00C94D4090C9458
:101900001F0A5F3FE4F3983ED4F386957795679579
:10191000B795F7959F5FC9F7880F911D96958795A5
:1019200097F90895E1E0660F771F881FBB1F6217C4
:1019300073078407BA0720F0621B730B840BBA0B82
:10194000EE1F88F7E09508959F3F31F0915020F405
:10195000879577956795B795880F911D969587958B
:1019600097F9089597FB072E16F4009407D077FD9A
:1019700009D00E94F00C07FC05D03EF490958195AB
:101980009F4F0895709561957F4F0895A1E21A2E9B
:10199000AA1BBB1BFD010DC0AA1FBB1FEE1FFF1F13
:1019A000A217B307E407F50720F0A21BB30BE40B63
:1019B000F50B661F771F881F991F1A9469F76095AA
:1019C0007095809590959B01AC01BD01CF01089564
:1019D000EE0FFF1F881F8BBF0790F691E02D199423
:1019E000AA1BBB1B51E107C0AA1FBB1FA617B70745
:1019F00010F0A61BB70B881F991F5A95A9F7809561
:0C1A00009095BC01CD010895F894FFCF33
:101A0C00000000005302BD01EA01A0021B02F90113
:061A1C000D020D0A00009E
:00000001FF
